:1000000075816075D0007800743F08F6B81FFB74E6
:100010002A08F6B85FFB747E08F6B8FFFB31005182
:100020008131376002B1AB71A09000B291A6E4F8C3
:10003000F9FAFB71D3858234858335E4F8F9FAFB4C
:100040009004BC85823085833191EF91EFA834A96B
:100050003519199000B491A69001BEE82582F534B7
:10006000E93583F535E4F8F9744091EF9000B491E7
:10007000A6E534C39438F582E5359400F583E0A312
:10008000F8E0A3F9E0A3FAE0A3FB91959000B49106
:10009000A671D3858234858335E4F8F9FAFB9004A0
:1000A000BC85823085833191EF91EF9000B491A6A9
:0700B00080FE4F4B0D0A001A
:10010000759852759ABF759B1E9001248582308523
:10011000833190011C858232858333223099FDC260
:1001200099F599223098FDC298E59922F5C5E5C464
:10013000548060FAE5C522EDC0E0C082C08375C37B
:10014000F13185319A7D0531A9B401311D31B9B440
:10015000012B1DBB0027BA0024B90121B8AA1E7DBE
:100160006431D1600A740A9128DDF67D02800E7D2B
:100170000131F91D900257858244858345D083D093
:1001800082D0E0CD22C0E0C0F0D29175F00A74FFB9
:10019000312CD5F0F9D0F0D0E022C0E074FF312C42
:1001A000C29174FF312CD0E0229144E4F8F9FAFBBB
:1001B0007C94510D5127915D22ECC0E0740878AA1F
:1001C00079017A007B007C86510D5139FCD0E0CC5E
:1001D0002231E8B401119144E4F8F9FA7B40FC744F
:1001E00029510D5127915D229144E4F8F9FAFBFC65
:1001F0007437510D5127915D22ECC0E0E4F8F9FA13
:10020000FBFC743A510D5139FCD0E0CC22C0E044E3
:1002100040312CEB312CEA312CE9312CE8312CEC3B
:100220004401312CD0E022C0F08508F074FF312C5D
:10023000B4FF03D5F0F6D0F0225127B402004001FC
:1002400022F874FF312CFB74FF312CFA74FF312C2F
:10025000F974FF312CC822C0E074117CFF510D519C
:1002600027B4FEFB7D0074FF312CF0A374FF312C0A
:10027000F0A3DDF274FF312CFD74FF312CFCD0E0D3
:1002800022C0E0C082C083538EE1438E10900000F4
:100290007423F0A37407B583F79000008582388536
:1002A00083397404F540F0A3E4F541F0A37542FFEF
:1002B00085064374FCF0A37406F0A3E4F0A3F0A356
:1002C00074FCF0A37406F0A3D083D082D0E022C0E7
:1002D000A8C2AFC0E0C082C08305A2C082C0839123
:1002E00044E6FE08E6FFEE4F7002B1ABEE24035485
:1002F000FCFEEF3400FFAA38AB398A828B83E0FC26
:10030000A3E0FDEC4D7002B1AB8C828D83A3A3E022
:10031000F9A3C3E09F701CE99E70188A828B830545
:10032000A28C828D83E0A305A2F0A305A2E005A222
:10033000F08047500FECFAEDFB8C828D82E0FCA33D
:10034000E0FD80BF8A828B83EC2EFAF0A3ED3FFBA9
:10035000F08A828B8305A28C828D83E0A305A2F0B4
:10036000A305A2E0A305A2F0A305A2E0A3C39E05F6
:10037000A2F0A305A2E09F05A2F08538828539830B
:10038000A3A3E0C39EF0A3E09FF0EDF618ECF69176
:100390005DD083D08205A2D083D082D0E0D0A822C5
:1003A000C0E0E8C0E0E9C0E0C082C083780579021F
:1003B00051CF8848894988828983E5FFF0A3F0A35B
:1003C000F0A3F0A3E4F0D083D082D0E0F9D0E0F83D
:1003D000D0E022C0E0FCC0E0FDC0E0854882854955
:1003E00083E0A3687012E0A369700EE0A36A700A4C
:1003F000E0A36B7006A38020A3A3A3E0A3600291F7
:10040000269121854882854983E8F0A3E9F0A3EA93
:10041000F0A3EBF0A3E4F0A3D0E0FDD0E0FCD0E04B
:1004200022C044C04522B1ABC0E0C0F075F0B9C0F5
:10043000E0C0F0A4A4D0F0D0E0D5F0F3D5E0EDD04A
:10044000F0D0E022C0E0E5D05418B41802B1ABE51A
:10045000D02408F5D0541824F8F8D0E022C0E0E504
:10046000D054187002B1ABE5D024F8F5D0D0E0221A
:10047000C032C03322C49179C4C0E0540F2490D458
:100480003440D444209170D0E022C0E0E99175E876
:100490009175D0E022C0E0EB9175EA9175E9917514
:1004A000E89175D0E022C0E0E8C0E0E4F89360068F
:1004B000917008E870F7D0E0F8D0E022C08EC082DA
:1004C000C083538EE1438E10853482853583E0A34B
:1004D000858234858335D083D082D08E22C030C0CF
:1004E0003122C8CCC8C9CDC9CACECACBCFCB22C055
:1004F000F0C0E0F5F0ECC0E0EDC0E0EEC0E0EFC031
:10050000E091E2E581F82410F581791091DD08F69B
:10051000D5F003198002D9F491E2919591E2743AF1
:100520009170E824F029F87A1008EA5403700474F2
:10053000209170EAD39950087420917091708003D3
:10054000E6917574209170DAE0E824F0F874209157
:1005500070747C91707410C399F9FA08E6B42000A5
:100560004005B47F004002742E9170DAEE747C91E5
:1005700070740D9170740A9170E824F0F8EC29FC05
:10058000ED3400FDEE3400FEEF3400FFE5F06002D4
:10059000A10AE58124F0F58191E2D0E0FFD0E0FEF0
:1005A000D0E0FDD0E0FCD0E0D0F022C2AFF8900166
:1005B0001C8582328583339005DE91A6D0E0FAD087
:1005C000E0C39402F9EA94009175E9917574209161
:1005D00070E89175740D9170740A917080FE0D0A27
:0D05E000202121212070616E696320400000
:00000001FF
