:1000000075816075D0007800743F08F6B81FFB74E6
:100010002A08F6B85FFB747E08F6B8FFFB120200F0
:100020001203B11202376003120F8312061D9001F2
:100030008C120E9512069C855034855135E4F8F9E2
:10004000FAFB900EA98582308583317415120ECF8C
:1000500090018E120E958550828551837411120E77
:100060001C120E3D120E8490018E120E951207EC9A
:10007000120E8490018E120E9585508285518374E4
:1000800011120E1C120E3D120870E4F8F9FAFB1260
:1000900008F305A2858234858335900EA9858230C8
:1000A00085833105A2E4F8F9FAFB7420120ECF051E
:1000B000A290018E120E9505A212088385508285AA
:1000C00051837411120E1C120E3D120A5D120AA306
:1000D000702505A2858234858335E4F8F9FAFB9012
:1000E0000EA98582308583317420120ECF90018E47
:1000F000120E9505A280D6120A8C780B7900120395
:10010000FF85825A85835B7441F0A3744CF0A3741D
:1001100049F0A37443F0A37445F0A37427F0A374CB
:100120007EF0A37431F0A37454F0A37458F0A37458
:1001300054F0782079001203FF85825C85835D8509
:100140005A82855B83120B776003120F8385825E70
:1001500085835F05A2855C82855D8305A27420127C
:100160000C93855C34855D35E4F8F9FAFB900EA9B3
:100170008582308583317420120ECF90018E120E4D
:1001800095855E82855F83120C7C80FE4F4B0D0A45
:01019000006E
:10020000759852759ABF759B1E9002248582308521
:10021000833190021C858232858333223099FDC25E
:1002200099F599223098FDC298E59922F5C5E5C463
:10023000548060FAE5C522C005C082C08375C3F151
:1002400012028B1202A07D051202AFB401351D12FD
:1002500002CFB4012E1DBB002ABA0027B90124B871
:10026000AA217D641202E4600B740A120DF3DDF41E
:100270007D02800F7D0112032C1D9003878582442F
:10028000858345EDD083D082D00522C0E0C0F0D276
:100290009175F00A74FF512CD5F0F9D0F0D0E0221E
:1002A000C0E074FF512CC29174FF512CD0E022C0E9
:1002B00000C001C002C003C004E4F8F9FAFB7C945A
:1002C000713D7157D004D003D002D001D00022C0BC
:1002D00004740878AA79017A007B007C86713D71EC
:1002E00069D00422710BB40121C000C001C002C05A
:1002F00003C004E4F8F9FA7B40FC7429713D71579E
:10030000D004D003D002D001D00022C000C001C070
:1003100002C003C004E4F8F9FAFBFC7437713D71C4
:1003200057D004D003D002D001D00022C004E4F89A
:10033000F9FAFBFC743A713D7169D00422C0E044C3
:1003400040512CEB512CEA512CE9512CE8512CEC6A
:100350004401512CD0E022C0F08508F074FF512CEC
:10036000B4FF03D5F0F6D0F0227157B4020040017B
:1003700022F874FF512CFB74FF512CFA74FF512C9E
:10038000F974FF512CC822C0E074117CFF713D71DB
:1003900057B4FEFB7D0074FF512CF0A374FF512C69
:1003A000F0A3DDF274FF512CFD74FF512CFCD0E062
:1003B00022C0E0C082C083538EE1438E10900000C3
:1003C0007423F0A37407B583F79000008582388505
:1003D00083397404F540F0A3E4F541F0A37542FFBE
:1003E00085064374FCF0A37406F0A3E4F0A3F0A325
:1003F00074FCF0A37406F0A3D083D082D0E022C0B6
:10040000A8C2AFC0E0C000C001C002C003C004C0A9
:1004100005C006C00705A2C082C083E84970031268
:100420000F83E8240354FCF8E93400F9AA38AB3907
:100430008A828B83E0FCA3E0FDEC4D7003120F83F6
:100440008C828D83A3A3E0FEA3C3E099701CEE9879
:1004500070188A828B8305A28C828D83E0A305A20B
:10046000F0A305A2E005A2F08047500FECFAEDFBE7
:100470008C828D83E0FCA3E0FD80BE8A828B83ECBE
:1004800028FAF0A3ED39FBF08A828B8305A28C82D7
:100490008D83E0A305A2F0A305A2E0A305A2F0A32B
:1004A00005A2E0A3C39805A2F0A305A2E09905A2C6
:1004B000F0853882853983A3A3E0C398F0A3E0993F
:1004C000F0D083D08205A28C828D83D007D006D055
:1004D00005D004D003D002D001D000D0E0D0A822B3
:1004E000C0A8C2AFC0E0C082C083C000C001C002CB
:1004F000C003C004C005C006C007AA82AB83E84998
:100500007003120F83EBB54104EAB54000500312AB
:100510000F83EBB54304EAB542004003120F83E8B2
:10052000240354FCF8E93400F9AE38AF398E828FD9
:1005300083E0FCA3E0FDEC4D601DC3ED9B7007EC78
:100540009A7003120F83500FECFEEDFF8C828D83A7
:10055000E0FCA3E0FD80DFEFB53906EEB5380280A0
:10056000318E828F83A3A3E02EC0E0A3E03FF5830A
:10057000D082EBB58317EAB582138E828F83A3A353
:10058000E028F0A3E039F0EEFAEFFB801D500312F3
:100590000F838A828B83ECF0A3EDF0A3E8F0A3E94C
:1005A000F08E828F83EAF0A3EBF08A828B83A3A381
:1005B000E02AFEA3E03BF5838E82EDB58332ECB5F5
:1005C000822E8A828B8305A28C828D83E0A305A272
:1005D000F0A305A2E0A305A2F0A305A2E0A3FE05F7
:1005E000A2E02EF0A305A2E0FF05A2E03FF0800507
:1005F0005003120F83853882853983A3A3E028F046
:10060000A3E039F0D007D006D005D004D003D00243
:10061000D001D000D083D082D0E0D0A822C0E0C0EA
:1006200000C001C082C0837805790271FF858248CD
:10063000858349E5FFF0A3F0A3F0A3F0A3E4F0D095
:1006400083D082D001D000D0E022C0E0C004C00539
:10065000854882854983E0A3687012E0A369700E23
:10066000E0A36A700AE0A36B7006A38020A3A3A393
:10067000E0A36002D199D194854882854983E8F04E
:10068000A3E9F0A3EAF0A3EBF0A3E4F0A3D005D034
:1006900004D0E022C044C04522120F83C0E0C0F065
:1006A000C082C08305A2C082C083C000C001C00256
:1006B000C003C004C005C006C007A8157900120316
:1006C000FF858250858351E4F8F9FAFB12064A123D
:1006D00007C9E58224C2F582E5833401F583E0C3CE
:1006E000940B6006146003120F83A3A3A3A305A2B7
:1006F0008550828551837804120E2A855082855157
:1007000083120E3D12064A1207C9E582240BF582B8
:10071000E5833400F583E06003120F83A3E06402F5
:100720006003120F83A3E07003120F83F5F01455DA
:10073000F06003120F83E5F005A285508285518396
:10074000A3A3A3A3F005A2A3E0FCA3E0FDE4FEFFA6
:10075000A305A2855082855183120E3D120D90A3F0
:10076000120E4E05A2E064026003120F83E582249C
:1007700014F582E5833400F583120E0F120E3D123C
:100780000E0F120D9005A2120E4E120D90ACF0E459
:10079000FDFEFF120DA1120DA1120E4E05A2A3A384
:1007A000A3A3120E3D05A2120E4ED007D006D0050F
:1007B000D004D003D002D001D000D083D08205A2D3
:1007C000D083D082D0F0D0E022E58224FEF582E50D
:1007D000833401F583E064556003120F83A3E06462
:1007E000AA6003120F83A31583158322C0E0C0F013
:1007F000C082C083C004C005C006C0078550828582
:1008000051837404120E1CE0F5F0E5F07C00B40195
:1008100002800C6007C31340030C80F2120F83ECBC
:10082000120DB3120E0F855082855183740D120E76
:100830001C120E3D120D90D007D006D005D004D06A
:1008400083D082D0F0D0E022C082C083C000C0013B
:10085000C002C003120E4E120E4EE4F8F9FAFB125B
:100860000E4ED003D002D001D000D083D0822222FD
:10087000C000C001780C79001203FFD001D0001233
:10088000084822C000C00112086F780C79001204D9
:10089000E0D001D00022C0E0C0F0C082C083C0041C
:1008A000C005C006C007E8547FF5F07407120DD3E9
:1008B000120E0F8550828551837405120E1C120E84
:1008C0003D120D9012064AE5F0C333C333FCE43306
:1008D000FDE5822CF582E5833DF583120E3DEB5458
:1008E0000FFBD007D006D005D004D083D082D0F043
:1008F000D0E022C0E0C0F0C000C001C002C003C010
:1009000004C005C006C007858252858353C0008598
:1009100050828551837404120E1CE0F5F0D000E57E
:10092000F01458C0E0E5F07C00B401028005C31368
:100930000C80F6EC120DD3C000C001C002C00385CC
:1009400052828553837408120E1C120E3DD007D0BC
:1009500006D005D004E86C700FE96D700BEA6E707C
:1009600007EB6F70030209F3EBC39F40337013EA88
:10097000C39E402C700CE9C39D40257005E8C39CC4
:10098000401EC004C005C006C0078552828553833F
:10099000120E3D120E4EE4F8F9FAFB120E4E809F35
:1009A000C004C005C006C007855282855383740405
:1009B000120E1C120E3D12089685528285538374C6
:1009C00004120E1C120E4E85528285538374081237
:1009D0000E1C120E3D08B8000909B900050ABA003C
:1009E000010B8552828553837408120E1C120E4E21
:1009F00002093F8552828553837404120E1C120E25
:100A00003D1207ECD0E028F8E439F9E43AFAE43B87
:100A1000FB05A212064A05A2855282855383D007A0
:100A2000D006D005D004D003D002D001D000D0F041
:100A3000D0E022C082C08305A2C082C08305A2C0CC
:100A4000001208F305A27800120E2A7800120E2A6E
:100A50001583158305A2D083D082D00022C0E0C0C8
:100A600000C001783179001203FFD001D0001208D4
:100A700048C000C082C083740C120E1CE47805F0DC
:100A8000A3D8FCD083D082D000D0E022C0E0C00048
:100A9000C00112086F783179001204E0D001D00053
:100AA000D0E022C0F0C000C001C002C003C004C03A
:100AB00005C006C007C082C083AE82AF8374101227
:100AC0000E1CE0FCBC10297C008E828F83740C12FB
:100AD0000E1C120E3D08B8000909B900050ABA003B
:100AE000010B8E828F83740C120E1C120E4E800C22
:100AF0008E828F83740C120E1C120E3D8E828F8399
:100B00001208F305A2ECC4C33350020583120E1C75
:100B100005A27411120E1C7820120E2A8E828F8369
:100B20007411120E1CE070047D01801BB4E5040CEE
:100B3000020AC48E828F83741C120E1CE0B40F0450
:100B40000C020AC40C7D008E828F837410120E1C5E
:100B5000ECF005A28E828F837411120E1C05A2D0B8
:100B600083D082D007D006EDD005D004D003D002C8
:100B7000D001D000D0F022C0F0C000C001C002C03F
:100B800003C004C005C006C007858254858355850F
:100B900050828551837411120E1C120E3D120A5D93
:100BA000858256858357855682855783120AA360AE
:100BB00003020C5E855482855583780BE0F5F0A323
:100BC00005A2E0A305A265F070DCD8F08556828509
:100BD0005783742B120E1CE0F8A3E0F9855682852A
:100BE00057837425120E1CE0FAA3E0FBC000C0017D
:100BF000C002C003781479001203FF8582588583F0
:100C000059D003D002D001D0001208488556828501
:100C10005783742D120E1C120E3D85588285598300
:100C2000740C120E1C120E4EE4F8F9FAFB85588271
:100C30008559837410120E1C120E4E8556828557EC
:100C400083120A8C855882855983E4D007D006D058
:100C500005D004D003D002D001D000D0F0228556B8
:100C600082855783120A8C7401D007D006D005D034
:100C700004D003D002D001D000D0F022C0E0C000E8
:100C8000C00112086F781479001204E0D001D0007E
:100C9000D0E022C0F0C082C083C000C001C002C04A
:100CA00003C004C005C006C0078582588583590566
:100CB000A285825A85835B05A2F5F0855882855905
:100CC000837410120E1C120E3D120E0F8558828571
:100CD0005983740C120E1C120E3D120DA1E8494AE4
:100CE0004B7004E4020D75E94A4B6004E5F0800B9B
:100CF000E8C395F04004E5F08001E8F5F07004E405
:100D0000020D758558828559837410120E1C120EBF
:100D10003DC000E95401C0E07409120DD38558822A
:100D20008559831208F305A2D0E0FCD0E02582F5B6
:100D300082EC3583F58305A2855A82855B83E5F0D5
:100D4000F8120E2A05A2855A82855B8305A2855872
:100D5000828559837410120E1CC082C083120E3D0E
:100D6000E5F0FC7D007E007F00120D90D083D082E4
:100D7000120E4EE5F0F5F0D007D006D005D004D025
:100D800003D002D001D000D083D082E5F0D0F02291
:100D9000C0E0E82CF8E93DF9EA3EFAEB3FFBD0E091
:100DA00022C0E0C3E89CF8E99DF9EA9EFAEB9FFBBC
:100DB000D0E022C0E0C0F0F5F0E5F0601115F0C31E
:100DC000E833F8E933F9EA33FAEB33FB80EBD0F0A0
:100DD000D0E022C0E0C0F0F5F0E5F0601115F0C3FE
:100DE000EB13FBEA13FAE913F9E813F880EBD0F000
:100DF000D0E022C0E0C0F075F0B9C0E0C0F0A4A41B
:100E0000D0F0D0E0D5F0F3D5E0EDD0F0D0E022C8BE
:100E1000CCC8C9CDC9CACECACBCFCB22C0E02582AF
:100E2000F582E43583F583D0E022C0E0C00005A25E
:100E3000E0A305A2F0A3D8F6D000D0E022C0E0E005
:100E4000F8A3E0F9A3E0FAA3E0FBA3D0E022C0E01E
:100E5000E8F0A3E9F0A3EAF0A3EBF0A3D0E022C00E
:100E600032C03322C4D168C4C0E0540F2490D434BB
:100E700040D44420D15FD0E022C0E0E9D164E8D181
:100E800064D0E022C0E0EBD164EAD164E9D164E847
:100E9000D164D0E022C0E0C000E4F8936006D15FE6
:100EA00008E870F7D000D0E022C08EC082C0835323
:100EB0008EE1438E10853482853583E0A3858234AC
:100EC000858335D083D082D08E22C030C03122C0FD
:100ED000F0C0E0F5F0C004C005C006C007D10FE5C2
:100EE00081F82410F5817910D1CA08F6D5F00319DC
:100EF0008002D9F4D10FD184D10F743AD15FE824A4
:100F0000F029F87A1008EA540370047420D15FEADB
:100F1000D39950087420D15FD15F8003E6D1647407
:100F200020D15FDAE0E824F0F87420D15F747CD13E
:100F30005F7410C399F9FA08E6B420004005B47F45
:100F4000004002742ED15FDAEE747CD15F740DD153
:100F50005F740AD15FE824F0F8EC29FCED3400FD61
:100F6000EE3400FEEF3400FFE5F06002C1E6E581FB
:100F700024F0F581D10FD007D006D005D004D0E001
:100F8000D0F022C2AFF890021C8582328583339064
:100F90000FB6D195D0E0FAD0E0C39402F9EA9400FC
:100FA000D164E9D1647420D15FE8D164740DD15F5C
:100FB000740AD15F80FE0D0A202121212070616E0C
:050FC000696320400000
:00000001FF
