:1000000075816075D0007800743F08F6B81FFB74E6
:100010002A08F6B85FFB747E08F6B8FFFB31005182
:10002000AA31376002F1B071D790006BD1C29155FF
:10003000855034855135E4F8F9FAFB9006D685826F
:10004000308583317415D1FC90006DD1C28550820A
:100050008551837411D149D16AD1B190006DD1C25B
:10006000B188D1B190006DD1C280FE4F4B0D0A0016
:10010000759852759ABF759B1E9001248582308523
:10011000833190011C858232858333223099FDC260
:1001200099F599223098FDC298E59922F5C5E5C464
:10013000548060FAE5C522C005C082C08375C3F152
:10014000318431997D0531A8B401311D31C8B40124
:100150002B1DBB0027BA0024B90121B8AA1E7D645B
:1001600031DD600A740AD120DDF67D02800E7D014A
:1001700051251D900280858244858345EDD083D032
:1001800082D00522C0E0C0F0D29175F00A74FF3130
:100190002CD5F0F9D0F0D0E022C0E074FF312CC2B1
:1001A0009174FF312CD0E022C000C001C002C00316
:1001B000C004E4F8F9FAFB7C9451365150D004D0D5
:1001C00003D002D001D00022C004740878AA7901BB
:1001D0007A007B007C8651365162D004225104B4EF
:1001E0000121C000C001C002C003C004E4F8F9FA54
:1001F0007B40FC742951365150D004D003D002D03A
:1002000001D00022C000C001C002C003C004E4F855
:10021000F9FAFBFC743751365150D004D003D002A8
:10022000D001D00022C004E4F8F9FAFBFC743A5182
:10023000365162D00422C0E04440312CEB312CEA2C
:10024000312CE9312CE8312CEC4401312CD0E02266
:10025000C0F08508F074FF312CB4FF03D5F0F6D060
:10026000F0225150B40200400122F874FF312CFBFF
:1002700074FF312CFA74FF312CF974FF312CC82231
:10028000C0E074117CFF51365150B4FEFB7D007408
:10029000FF312CF0A374FF312CF0A3DDF274FF3199
:1002A0002CFD74FF312CFCD0E022C0E0C082C08362
:1002B000538EE1438E109000007423F0A37407B5B1
:1002C00083F79000008582388583397404F540F007
:1002D000A3E4F541F0A37542FF85064374FCF0A347
:1002E0007406F0A3E4F0A3F0A374FCF0A37406F08A
:1002F000A3D083D082D0E022C0A8C2AFC0E0C000AB
:10030000C001C002C003C004C005C006C00705A2EA
:10031000C082C083E8497002F1B0E8240354FCF8BD
:10032000E93400F9AA38AB398A828B83E0FCA3E078
:10033000FDEC4D7002F1B08C828D83A3A3E0FEA38F
:10034000C3E099701CEE9870188A828B8305A28C8A
:10035000828D83E0A305A2F0A305A2E005A2F080B0
:1003600047500FECFAEDFB8C828D83E0FCA3E0FD9F
:1003700080BF8A828B83EC28FAF0A3ED39FBF08AE8
:10038000828B8305A28C828D83E0A305A2F0A30556
:10039000A2E0A305A2F0A305A2E0A3C39805A2F0E2
:1003A000A305A2E09905A2F0853882853983A3A32D
:1003B000E0C398F0A3E099F0D083D08205A28C82AC
:1003C0008D83D007D006D005D004D003D002D00151
:1003D000D000D0E0D0A822C0E0C000C001C082C0E0
:1003E000837805790251F8858248858349E5FFF0D5
:1003F000A3F0A3F0A3F0A3E4F0D083D082D001D087
:1004000000D0E022C0E0C004C00585488285498351
:10041000E0A3687012E0A369700EE0A36A700AE0BE
:10042000A36B7006A38020A3A3A3E0A36002915353
:10043000914E854882854983E8F0A3E9F0A3EAF06C
:10044000A3EBF0A3E4F0A3D005D004D0E022C04495
:10045000C04522F1B0C0E0C0F0C082C08305A2C098
:1004600082C083C000C001C002C003C004C005C078
:1004700006C007A815790051F8858250858351E49C
:10048000F8F9FAFB9104B167E58224C2F582E583AD
:100490003401F583E0C3940B6005146002F1B0A34E
:1004A000A3A3A305A28550828551837804D15785E3
:1004B0005082855183D16A9104B167E582240BF59E
:1004C00082E5833400F583E06002F1B0A3E06402CA
:1004D0006002F1B0A3E07002F1B0F5F01455F060E5
:1004E00002F1B0E5F005A2855082855183A3A3A354
:1004F000A3F005A2A3E0FCA3E0FDE4FEFFA305A298
:10050000855082855183D16AB1DDA3D17B05A2E0FC
:1005100064026002F1B0E5822414F582E5833400C0
:10052000F583D13CD16AD13CB1DD05A2D17BB1DDEF
:10053000ACF0E4FDFEFFB1EEB1EED17B05A2A3A3CA
:10054000A3A3D16A05A2D17BD007D006D005D004E1
:10055000D003D002D001D000D083D08205A2D083B6
:10056000D082D0F0D0E022E58224FEF582E583340B
:1005700001F583E064556002F1B0A3E064AA600273
:10058000F1B0A31583158322C0E0C0F0C082C08300
:10059000C004C005C006C00785508285518374041D
:1005A000D149E0F5F0E5F07C00B40102800B600772
:1005B000C31340030C80F2F1B0ECD100D13C855064
:1005C00082855183740DD149D16AB1DDD007D0063F
:1005D000D005D004D083D082D0F0D0E022C0E0E8B3
:1005E0002CF8E93DF9EA3EFAEB3FFBD0E022C0E00F
:1005F000C3E89CF8E99DF9EA9EFAEB9FFBD0E02264
:10060000C0E0C0F0F5F0E5F0601115F0C3E833F894
:10061000E933F9EA33FAEB33FB80EBD0F0D0E02298
:10062000C0E0C0F075F0B9C0E0C0F0A4A4D0F0D034
:10063000E0D5F0F3D5E0EDD0F0D0E022C8CCC8C9C9
:10064000CDC9CACECACBCFCB22C0E02582F582E489
:100650003583F583D0E022C0E0C00005A2E0A30509
:10066000A2F0A3D8F6D000D0E022C0E0E0F8A3E0EA
:10067000F9A3E0FAA3E0FBA3D0E022C0E0E8F0A3F6
:10068000E9F0A3EAF0A3EBF0A3D0E022C032C0333C
:1006900022C4D195C4C0E0540F2490D43440D44433
:1006A00020D18CD0E022C0E0E9D191E8D191D0E016
:1006B00022C0E0EBD191EAD191E9D191E8D191D07A
:1006C000E022C0E0C000E4F8936006D18C08E87036
:1006D000F7D000D0E022C08EC082C083538EE143A9
:1006E0008E10853482853583E0A3858234858335F9
:1006F000D083D082D08E22C030C03122C0F0C0E082
:10070000F5F0C004C005C006C007D13CE581F8245F
:1007100010F5817910D1F708F6D5F003198002D9C8
:10072000F4D13CD1B1D13C743AD18CE824F029F811
:100730007A1008EA540370047420D18CEAD39950DB
:10074000087420D18CD18C8003E6D1917420D18C97
:10075000DAE0E824F0F87420D18C747CD18C741029
:10076000C399F9FA08E6B420004005B47F004002BE
:10077000742ED18CDAEE747CD18C740DD18C740A09
:10078000D18CE824F0F8EC29FCED3400FDEE3400C7
:10079000FEEF3400FFE5F06002E113E58124F0F59F
:1007A00081D13CD007D006D005D004D0E0D0F022D3
:1007B000C2AFF890011C8582328583339007E3D164
:1007C000C2D0E0FAD0E0C39402F9EA9400D191E9F2
:1007D000D1917420D18CE8D191740DD18C740AD14F
:1007E0008C80FE0D0A202121212070616E6963201A
:0207F0004000C7
:00000001FF
