:1000000075816075D0007800743F08F6B81FFB74E6
:100010002A08F6B85FFB747E08F6B8FFFB31005182
:100020008131376002D1F571A090004FB1FD912868
:10003000855034855135E4F8F9FAFB900613858232
:10004000308583317415D139900051B1FD80FE4F58
:040050004B0D0A004A
:10010000759852759ABF759B1E9001248582308523
:10011000833190011C858232858333223099FDC260
:1001200099F599223098FDC298E59922F5C5E5C464
:10013000548060FAE5C522EDC0E0C082C08375C37B
:10014000F13185319A7D0531A9B401311D31B9B440
:10015000012B1DBB0027BA0024B90121B8AA1E7DBE
:100160006431D1600A740AB13BDDF67D02800E7DF8
:100170000131F91D900257858244858345D083D093
:1001800082D0E0CD22C0E0C0F0D29175F00A74FFB9
:10019000312CD5F0F9D0F0D0E022C0E074FF312C42
:1001A000C29174FF312CD0E022B157E4F8F9FAFB88
:1001B0007C94510D5127B17022ECC0E0740878AAEC
:1001C00079017A007B007C86510D5139FCD0E0CC5E
:1001D0002231E8B40111B157E4F8F9FA7B40FC741C
:1001E00029510D5127B17022B157E4F8F9FAFBFCFF
:1001F0007437510D5127B17022ECC0E0E4F8F9FAE0
:10020000FBFC743A510D5139FCD0E0CC22C0E044E3
:1002100040312CEB312CEA312CE9312CE8312CEC3B
:100220004401312CD0E022C0F08508F074FF312C5D
:10023000B4FF03D5F0F6D0F0225127B402004001FC
:1002400022F874FF312CFB74FF312CFA74FF312C2F
:10025000F974FF312CC822C0E074117CFF510D519C
:1002600027B4FEFB7D0074FF312CF0A374FF312C0A
:10027000F0A3DDF274FF312CFD74FF312CFCD0E0D3
:1002800022C0E0C082C083538EE1438E10900000F4
:100290007423F0A37407B583F79000008582388536
:1002A00083397404F540F0A3E4F541F0A37542FFEF
:1002B00085064374FCF0A37406F0A3E4F0A3F0A356
:1002C00074FCF0A37406F0A3D083D082D0E022C0E7
:1002D000A8C2AFC0E0C082C08305A2C082C083B103
:1002E00057E6FE08E6FFEE4F7002D1F5EE24035408
:1002F000FCFEEF3400FFAA38AB398A828B83E0FC26
:10030000A3E0FDEC4D7002D1F58C828D83A3A3E0B8
:10031000F9A3C3E09F701CE99E70188A828B830545
:10032000A28C828D83E0A305A2F0A305A2E005A222
:10033000F08047500FECFAEDFB8C828D82E0FCA33D
:10034000E0FD80BF8A828B83EC2EFAF0A3ED3FFBA9
:10035000F08A828B8305A28C828D83E0A305A2F0B4
:10036000A305A2E0A305A2F0A305A2E0A3C39E05F6
:10037000A2F0A305A2E09F05A2F08538828539830B
:10038000A3A3E0C39EF0A3E09FF0EDF618ECF6B156
:1003900070D083D08205A2D083D082D0E0D0A822B2
:1003A000C0E0E8C0E0E9C0E0C082C083780579021F
:1003B00051CF8848894988828983E5FFF0A3F0A35B
:1003C000F0A3F0A3E4F0D083D082D0E0F9D0E0F83D
:1003D000D0E022C0E0FCC0E0FDC0E0854882854955
:1003E00083E0A3687012E0A369700EE0A36A700A4C
:1003F000E0A36B7006A38020A3A3A3E0A3600291F7
:10040000269121854882854983E8F0A3E9F0A3EA93
:10041000F0A3EBF0A3E4F0A3D0E0FDD0E0FCD0E04B
:1004200022C044C04522D1F5C0E0C0F0C082C083E4
:1004300005A2C082C083B157A815790051CF88505A
:100440008951E4F8F9FAFB71D3E58224C2F582E51B
:10045000833401F583E0C3940B6005146002D1F589
:10046000A3A3A3A305A28550828551837804B190EC
:10047000855082855183B1A571D3E582240BF58225
:10048000E5833400F583E06002D1F5A3E064026007
:1004900002D1F5A3E07002D1F5F5F01455F0600239
:1004A000D1F5E5F005A2855082855183A3A3A3A3CE
:1004B000F005A2A3E0FCA3E0FDE4FEFFA305A285F6
:1004C0005082855183B1A5B118A3B1B605A2E064ED
:1004D000026002D1F5E5822414F582E5833400F54B
:1004E00083B183B1A5B183B11805A2B1B6B118AC7F
:1004F000F0E4FDFEFFB129B129B1B605A2A3A3A383
:10050000A3B1A505A2B1B6B170D083D08205A2D0A7
:1005100083D082D0F0D0E022C0E0E82CF8E93DF9A9
:10052000EA3EFAEB3FFBD0E022C0E0C3E89CF8E9EA
:100530009DF9EA9EFAEB9FFBD0E022C0E0C0F07587
:10054000F0B9C0E0C0F0A4A4D0F0D0E0D5F0F3D56D
:10055000E0EDD0F0D0E022C0E0E5D05418B41802AD
:10056000D1F5E5D02408F5D0541824F8F8D0E022CD
:10057000C0E0E5D054187002D1F5E5D024F8F5D0EC
:10058000D0E022C8CCC8C9CDC9CACECACBCFCB22F5
:10059000C0E0E8C0E005A2E0A305A2F0A3D8F6D031
:1005A000E0F8D0E022C0E0E0F8A3E0F9A3E0FAA38D
:1005B000E0FBA3D0E022C0E0E8F0A3E9F0A3EAF07A
:1005C000A3EBF0A3D0E022C032C03322C4B1D0C428
:1005D000C0E0540F2490D43440D44420B1C7D0E0BC
:1005E00022C0E0E9B1CCE8B1CCD0E022C0E0EBB170
:1005F000CCEAB1CCE9B1CCE8B1CCD0E022C0E0E8A3
:10060000C0E0E4F8936006B1C708E870F7D0E0F8FE
:10061000D0E022C08EC082C083538EE1438E10850D
:100620003482853583E0A3858234858335D083D0B9
:1006300082D08E22C030C03122C0F0C0E0F5F0EC94
:10064000C0E0EDC0E0EEC0E0EFC0E0B183E581F8CE
:100650002410F5817910D13408F6D5F00319800201
:10066000D9F4B183B1ECB183743AB1C7E824F0296D
:10067000F87A1008EA540370047420B1C7EAD399D9
:1006800050087420B1C7B1C78003E6B1CC7420B163
:10069000C7DAE0E824F0F87420B1C7747CB1C774FD
:1006A00010C399F9FA08E6B420004005B47F004071
:1006B00002742EB1C7DAEE747CB1C7740DB1C77481
:1006C0000AB1C7E824F0F8EC29FCED3400FDEE3463
:1006D00000FEEF3400FFE5F06002C154E58124F034
:1006E000F581B183D0E0FFD0E0FED0E0FDD0E0FCAA
:1006F000D0E0D0F022C2AFF890011C858232858311
:100700003390071FB1FDD0E0B1CCD0E0B1CC742064
:10071000B1C7E8B1CC740DB1C7740AB1C780FE0D82
:0E0720000A202121212070616E6963204000B3
:00000001FF
