:1000000075816075D0007800743F08F6B81FFB74E6
:100010002A08F6B85FFB747E08F6B8FFFB120100F1
:100020001202B112013760031209CE12051D9000B1
:10003000BE1208E012059C855034855135E4F8F96C
:10004000FAFB9008F4858230858331741512091A01
:100050009000C01208E08550828551837411120807
:10006000671208881208CF9000C01208E01206EC50
:100070001208CF9000C01208E08550828551837429
:100080001112086712088812075CC082C083E4F866
:10009000F9FAFB12078A858234858335E4F8F9FA88
:1000A000FB9008F4858230858331742012091A9000
:1000B00000C01208E0D083D08212077380FE4F4B3D
:0300C0000D0A0026
:10010000759852759ABF759B1E9001248582308523
:10011000833190011C858232858333223099FDC260
:1001200099F599223098FDC298E59922F5C5E5C464
:10013000548060FAE5C522C005C082C08375C3F152
:1001400012018B1201A07D051201AFB401351D1201
:1001500001CFB4012E1DBB002ABA0027B90124B873
:10016000AA217D641201E4600B740A12083EDDF4DA
:100170007D02800F7D0112022C1D90028785824432
:10018000858345EDD083D082D00522C0E0C0F0D277
:100190009175F00A74FF312CD5F0F9D0F0D0E0223F
:1001A000C0E074FF312CC29174FF312CD0E022C02A
:1001B00000C001C002C003C004E4F8F9FAFB7C945B
:1001C000513D5157D004D003D002D001D00022C0FD
:1001D00004740878AA79017A007B007C86513D512D
:1001E00069D00422510BB40121C000C001C002C07B
:1001F00003C004E4F8F9FA7B40FC7429513D5157DF
:10020000D004D003D002D001D00022C000C001C071
:1002100002C003C004E4F8F9FAFBFC7437513D5105
:1002200057D004D003D002D001D00022C004E4F89B
:10023000F9FAFBFC743A513D5169D00422C0E04404
:1002400040312CEB312CEA312CE9312CE8312CEC0B
:100250004401312CD0E022C0F08508F074FF312C2D
:10026000B4FF03D5F0F6D0F0225157B4020040019C
:1002700022F874FF312CFB74FF312CFA74FF312CFF
:10028000F974FF312CC822C0E074117CFF513D513C
:1002900057B4FEFB7D0074FF312CF0A374FF312CAA
:1002A000F0A3DDF274FF312CFD74FF312CFCD0E0A3
:1002B00022C0E0C082C083538EE1438E10900000C4
:1002C0007423F0A37407B583F79000008582388506
:1002D00083397404F540F0A3E4F541F0A37542FFBF
:1002E00085064374FCF0A37406F0A3E4F0A3F0A326
:1002F00074FCF0A37406F0A3D083D082D0E022C0B7
:10030000A8C2AFC0E0C000C001C002C003C004C0AA
:1003100005C006C00705A2C082C083E84970031269
:1003200009CEE8240354FCF8E93400F9AA38AB39C3
:100330008A828B83E0FCA3E0FDEC4D70031209CEB2
:100340008C828D83A3A3E0FEA3C3E099701CEE987A
:1003500070188A828B8305A28C828D83E0A305A20C
:10036000F0A305A2E005A2F08047500FECFAEDFBE8
:100370008C828D83E0FCA3E0FD80BE8A828B83ECBF
:1003800028FAF0A3ED39FBF08A828B8305A28C82D8
:100390008D83E0A305A2F0A305A2E0A305A2F0A32C
:1003A00005A2E0A3C39805A2F0A305A2E09905A2C7
:1003B000F0853882853983A3A3E0C398F0A3E09940
:1003C000F0D083D08205A28C828D83D007D006D056
:1003D00005D004D003D002D001D000D0E0D0A822B4
:1003E000C0A8C2AFC0E0C082C083C000C001C002CC
:1003F000C003C004C005C006C007AA82AB83E84999
:1004000070031209CEEBB54104EAB5400050031267
:1004100009CEEBB54304EAB5420040031209CEE829
:10042000240354FCF8E93400F9AE38AF398E828FDA
:1004300083E0FCA3E0FDEC4D601DC3ED9B7007EC79
:100440009A70031209CE500FECFEEDFF8C828D8363
:10045000E0FCA3E0FD80DFEFB53906EEB5380280A1
:10046000318E828F83A3A3E02EC0E0A3E03FF5830B
:10047000D082EBB58317EAB582138E828F83A3A354
:10048000E028F0A3E039F0EEFAEFFB801D500312F4
:1004900009CE8A828B83ECF0A3EDF0A3E8F0A3E908
:1004A000F08E828F83EAF0A3EBF08A828B83A3A382
:1004B000E02AFEA3E03BF5838E82EDB58332ECB5F6
:1004C000822E8A828B8305A28C828D83E0A305A273
:1004D000F0A305A2E0A305A2F0A305A2E0A3FE05F8
:1004E000A2E02EF0A305A2E0FF05A2E03FF0800508
:1004F00050031209CE853882853983A3A3E028F002
:10050000A3E039F0D007D006D005D004D003D00244
:10051000D001D000D083D082D0E0D0A822C0E0C0EB
:1005200000C001C082C0837805790251FF858248EE
:10053000858349E5FFF0A3F0A3F0A3F0A3E4F0D096
:1005400083D082D001D000D0E022C0E0C004C0053A
:10055000854882854983E0A3687012E0A369700E24
:10056000E0A36A700AE0A36B7006A38020A3A3A394
:10057000E0A36002B199B194854882854983E8F08F
:10058000A3E9F0A3EAF0A3EBF0A3E4F0A3D005D035
:1005900004D0E022C044C045221209CEC0E0C0F021
:1005A000C082C08305A2C082C083C000C001C00257
:1005B000C003C004C005C006C007A8157900120218
:1005C000FF858250858351E4F8F9FAFB12054A123F
:1005D00006C9E58224C2F582E5833401F583E0C3D0
:1005E000940B60061460031209CEA3A3A3A305A273
:1005F0008550828551837804120875855082855113
:100600008312088812054A1206C9E582240BF58276
:10061000E5833400F583E060031209CEA3E06402B1
:1006200060031209CEA3E070031209CEF5F0145551
:10063000F060031209CEE5F005A285508285518352
:10064000A3A3A3A3F005A2A3E0FCA3E0FDE4FEFFA7
:10065000A305A28550828551831208881207FBA347
:1006600012089905A2E0640260031209CEE5822413
:1006700014F582E5833400F58312085A12088812B3
:10068000085A1207FB05A21208991207FBACF0E406
:10069000FDFEFF12080C12080C12089905A2A3A374
:1006A000A3A312088805A2120899D007D006D00586
:1006B000D004D003D002D001D000D083D08205A2D4
:1006C000D083D082D0F0D0E022E58224FEF582E50E
:1006D000833401F583E0645560031209CEA3E0641E
:1006E000AA60031209CEA31583158322C0E0C0F0CF
:1006F000C082C083C004C005C006C0078550828583
:1007000051837404120867E0F5F0E5F07C00B40151
:1007100002800C6007C31340030C80F21209CEEC78
:1007200012081E12085A855082855183740D1208D2
:10073000671208881207FBD007D006D005D004D076
:1007400083D082D0F0D0E022C0E0C082C083120803
:1007500099120899D083D082D0E02222C0E0C00054
:10076000C001780879001202FFD001D000120748BA
:10077000D0E022C0E0C000C00112075B7808790019
:100780001203E0D001D000D0E022C0E0C004C005D8
:10079000C006C007E8494A4B60031209CE12088818
:1007A0001206EC12054AD007D006D005D004D0E0DE
:1007B00022C0E0C082C08305A2C082C08305A2C05F
:1007C00000C001C002C003C004C005C006C00712BB
:1007D000078A05A278001208757800120875D007FC
:1007E000D006D005D004D003D002D001D000D083F1
:1007F000D08205A2D083D082D0E022C0E0E82CF8DD
:10080000E93DF9EA3EFAEB3FFBD0E022C0E0C3E865
:100810009CF8E99DF9EA9EFAEB9FFBD0E022C0E04C
:10082000C0F0F5F0E5F0601115F0C3E833F8E933F6
:10083000F9EA33FAEB33FB80EBD0F0D0E022C0E0F2
:10084000C0F075F0B9C0E0C0F0A4A4D0F0D0E0D5FD
:10085000F0F3D5E0EDD0F0D0E022C8CCC8C9CDC9C6
:10086000CACECACBCFCB22C0E02582F582E4358345
:10087000F583D0E022C0E0C00005A2E0A305A2F00D
:10088000A3D8F6D000D0E022C0E0E0F8A3E0F9A3BE
:10089000E0FAA3E0FBA3D0E022C0E0E8F0A3E9F097
:1008A000A3EAF0A3EBF0A3D0E022C032C03322C40D
:1008B00011B3C4C0E0540F2490D43440D444201168
:1008C000AAD0E022C0E0E911AFE811AFD0E022C029
:1008D000E0EB11AFEA11AFE911AFE811AFD0E022C0
:1008E000C0E0C000E4F893600611AA08E870F7D0F1
:1008F00000D0E022C08EC082C083538EE1438E10B0
:10090000853482853583E0A3858234858335D08321
:10091000D082D08E22C030C03122C0F0C0E0F5F0CD
:10092000C004C005C006C007115AE581F82410F5BF
:10093000817910311508F6D5F003198002D9F41128
:100940005A11CF115A743A11AAE824F029F87A10F2
:1009500008EA54037004742011AAEAD39950087469
:100960002011AA11AA8003E611AF742011AADAE0BF
:10097000E824F0F8742011AA747C11AA7410C399A9
:10098000F9FA08E6B420004005B47F004002742E56
:1009900011AADAEE747C11AA740D11AA740A11AAB4
:1009A000E824F0F8EC29FCED3400FDEE3400FEEF15
:1009B0003400FFE5F060022131E58124F0F581117A
:1009C0005AD007D006D005D004D0E0D0F022C2AF74
:1009D000F890011C858232858333900A0111E0D0A2
:1009E000E0FAD0E0C39402F9EA940011AFE911AF44
:1009F000742011AAE811AF740D11AA740A11AA800B
:100A0000FE0D0A202121212070616E6963204000C3
:00000001FF
