:1000000075816075D0007800743F08F6B81FFB74E6
:100010002A08F6B85FFB747E08F6B8FFFB117C5126
:100020006E11A8B4442611AD8834893511ADE8A805
:1000300034A9357A007B00C030C03190024D8582F2
:10004000308583313191D031D03080D5B441081121
:10005000AD51BC313C801BB4521411ADE8FCE9FD3C
:1000600011ADE8FAE9FBECF8EDF9718D8004743F0D
:10007000310C740D310C740A310C80A575985275D1
:100080009ABF759B1E9000A08582308583319000B9
:1000900098858232858333223099FDC299F5992261
:1000A0003098FDC298E59922C030C03122C0E0EC02
:1000B000C0E0EDC0E0E4F8F9FAFB11A8C3943040C9
:1000C00042B40A00400D94114039240A54DFB410A0
:1000D000005030FCE8C4FD54F04CF8ED540FFCE93E
:1000E000C4FD54F04CF9ED540FFCEAC4FD54F04C3F
:1000F000FAED540FFCEBC4FD54F04CFBED540F70C3
:100100000280B7D0E0FDD0E0FCD0E022C032C033A6
:1001100022C0E0E8C0E0E4F8936006310C08E87023
:10012000F7D0E0F8D0E022C4312BC4C0E0540F2453
:1001300090D43440D44420310CD0E022C0E0E931E6
:1001400027E83127D0E022C0E0EB3127EA3127E968
:100150003127E83127D0E022C8CCC8C9CDC9CACEE2
:10016000CACBCFCB22C0E0E5D05418B4180291B36B
:10017000E5D02408F5D0541824F8F8D0E022C0E0E7
:10018000E5D05418700291B3E5D024F8F5D0D0E052
:1001900022C0F0C0E0F5F0ECC0E0EDC0E0EEC0E061
:1001A000EFC0E03158E581F82410F581791011A8ED
:1001B00008F6D5F003198002D9F431583147315887
:1001C000743A310CE824F029F87A1008EA540370E4
:1001D000047420310CEAD39950087420310C310C8E
:1001E0008003E631277420310CDAE0E824F0F8745B
:1001F00020310C747C310C7410C399F9FA08E6B400
:1002000020004005B47F004002742E310CDAEE74F9
:100210007C310C740D310C740A310CE824F0F8ECCC
:1002200029FCED3400FDEE3400FEEF3400FFE5F074
:10023000600221ACE58124F0F5813158D0E0FFD097
:10024000E0FED0E0FDD0E0FCD0E0D0F022C08EC0D7
:1002500082C083538EE1438E10853482853583E0DE
:10026000A3858234858335D083D082D08E22C0E0AE
:10027000C082C083538EE1438E109000007423F03F
:10028000A37407B583F7900000858238858339749D
:1002900004F540F0A3E4F541F0A37542FF85064361
:1002A00074FCF0A37406F0A3E4F0A3F0A374FCF0D4
:1002B000A37406F0A3D083D082D0E022C0A8C2AF3E
:1002C000C0E0C082C08305A2C082C0833165E6FE63
:1002D00008E6FFEE4F700291B3EE240354FCFEEFEC
:1002E0003400FFAA38AB398A828B83E0FCA3E0FD9F
:1002F000EC4D700291B38C828D83A3A3E0F9A3C36C
:10030000E09F701CE99E70188A828B8305A28C8204
:100310008D83E0A305A2F0A305A2E005A2F080472B
:10032000500FECFAEDFB8C828D82E0FCA3E0FD80A7
:10033000BF8A828B83EC2EFAF0A3ED3FFBF08A821A
:100340008B8305A28C828D83E0A305A2F0A305A276
:10035000E0A305A2F0A305A2E0A3C39E05A2F0A31B
:1003600005A2E09F05A2F0853882853983A3A3E02A
:10037000C39EF0A3E09FF0EDF618ECF6317ED0833B
:10038000D08205A2D083D082D0E0D0A822C0A8C25B
:10039000AFC0E0C082C0833165E82403F8E6FF18EF
:1003A000E6FE18E6F918E6F8EE4F700291B3E9B5EB
:1003B0004104E8B54000500291B3E9B54304E8B503
:1003C0004200400291B3EE240354FCFEEF3400FFE0
:1003D000AA38AB398A828B83E0FCA3E0FDEC4D6048
:1003E0001CC3ED997006EC98700291B3500FECFAB3
:1003F000EDFB8C828D83E0FCA3E0FD80E0EBB53962
:1004000006EAB5380280308A828B83A3A3E02AC033
:10041000E0A3E03BF583D082E9B58317E8B582130A
:100420008A828B83A3A3E02EF0A3E03FF0EAF8EBEF
:10043000F9801C500291B388828983ECF0A3EDF01F
:10044000A3EEF0A3EFF08A828B83E8F0A3E9F088B3
:10045000828983A3A3E028FAA3E039F5838A82ED99
:10046000B58332ECB5822E8882898305A28C828D79
:1004700083E0A305A2F0A305A2E0A305A2F0A305D3
:10048000A2E0A3FA05A2E02AF0A305A2E0FB05A2E0
:10049000E03BF08004500291B3853882853983A314
:1004A000A3E02EF0A3E03FF0317ED083D082D0E0F5
:1004B000D0A822C2AFF8900098858232858333900D
:1004C00004E63111D0E0FAD0E0C39402F9EA9400D6
:1004D0003127E931277420310CE83127740D310CB4
:1004E000740A310C80FE0D0A202121212070616EDA
:0504F0006963204000DB
:00000001FF
