:1000000075816075D0007800743F08F6B81FFB74E6
:100010002A08F6B85FFB747E08F6B8FFFB117C5126
:100020003411A8B4442611AD8834893511ADE8A83F
:1000300034A9357A007B00C030C03190021385822C
:1000400030858331315FD031D03080D5B441081153
:10005000AD51823136801BB4521411ADE8FCE9FD7C
:1000600011ADE8FAE9FBECF8EDF971658004743F35
:100070003108740D3108740A310880A575985275DD
:100080009ABF759B1E9000A08582308583319000B9
:1000900098858232858333223099FDC299F5992261
:1000A0003098FDC298E59922C030C03122C0E0C02E
:1000B00004C005E4F8F9FAFB11A8C394304042B437
:1000C0000A00400D94114039240A54DFB410005046
:1000D00030FCE8C4FD54F04CF8ED540FFCE9C4FDCD
:1000E00054F04CF9ED540FFCEAC4FD54F04CFAED19
:1000F000540FFCEBC4FD54F04CFBED540F70028028
:10010000B7D005D004D0E022C032C03322C0E0C056
:1001100000E4F8936006310808E870F7D000D0E0FA
:1001200022C43125C4C0E0540F2490D43440D444B8
:10013000203108D0E022C0E0E93121E83121D0E0CF
:1001400022C0E0EB3121EA3121E93121E83121D02F
:10015000E022C8CCC8C9CDC9CACECACBCFCB22C039
:10016000F0C0E0F5F0C004C005C006C0073152E59C
:1001700081F82410F581791011A808F6D5F003193B
:100180008002D9F4315231413152743A3108E824B5
:10019000F029F87A1008EA5403700474203108EA50
:1001A000D39950087420310831088003E631217456
:1001B000203108DAE0E824F0F874203108747C314A
:1001C000087410C399F9FA08E6B420004005B47F1A
:1001D000004002742E3108DAEE747C3108740D315F
:1001E00008740A3108E824F0F8EC29FCED3400FD2D
:1001F000EE3400FEEF3400FFE5F060022176E58189
:1002000024F0F5813152D007D006D005D004D0E0DB
:10021000D0F022C08EC082C083538EE1438E108501
:100220003482853583E0A3858234858335D083D0BD
:1002300082D08E22C0E0C082C083538EE1438E10F4
:100240009000007423F0A37407B583F79000008535
:1002500082388583397404F540F0A3E4F541F0A3B6
:100260007542FF85064374FCF0A37406F0A3E4F026
:10027000A3F0A374FCF0A37406F0A3D083D082D0C3
:10028000E022C0A8C2AFC0E0C082C08305A2C08285
:10029000C083C002C003C004C005C006C007E8FE9A
:1002A000E9FFEE4F7002919CEE240354FCFEEF3404
:1002B00000FFAA38AB398A828B83E0FCA3E0FDEC17
:1002C0004D7002919C8C828D83A3A3E0F9A3C3E0BF
:1002D0009F701CE99E70188A828B8305A28C828D88
:1002E00083E0A305A2F0A305A2E005A2F080475099
:1002F0000FECFAEDFB8C828D83E0FCA3E0FD80BF68
:100300008A828B83EC2EFAF0A3ED3FFBF08A828B7E
:100310008305A28C828D83E0A305A2F0A305A2E051
:10032000A305A2F0A305A2E0A3C39E05A2F0A30526
:10033000A2E09F05A2F0853882853983A3A3E0C39C
:100340009EF0A3E09FF0ECF8EDF9D007D006D005C1
:10035000D004D003D002D083D08205A2D083D08233
:10036000D0E0D0A822C0A8C2AFC0E0C082C083C085
:1003700000C001C002C003C004C005C006C007EA37
:10038000FEEBFFEE4F7002919CE9B54104E8B540E9
:10039000005002919CE9B54304E8B5420040029147
:1003A0009CEE240354FCFEEF3400FFAA38AB398ADC
:1003B000828B83E0FCA3E0FDEC4D601CC3ED9970E3
:1003C00006EC987002919C500FECFAEDFB8C828D3C
:1003D00083E0FCA3E0FD80E0EBB53906EAB5380226
:1003E00080308A828B83A3A3E02AC0E0A3E03BF5A0
:1003F00083D082E9B58317E8B582138A828B83A301
:10040000A3E02EF0A3E03FF0EAF8EBF9801C5002E5
:10041000919C88828983ECF0A3EDF0A3EEF0A3EF2A
:10042000F08A828B83E8F0A3E9F088828983A3A312
:10043000E028FAA3E039F5838A82EDB58332ECB582
:10044000822E8882898305A28C828D83E0A305A2F7
:10045000F0A305A2E0A305A2F0A305A2E0A3FA057C
:10046000A2E02AF0A305A2E0FB05A2E03BF0800495
:100470005002919C853882853983A3A3E02EF0A396
:10048000E03FF0D007D006D005D004D003D002D092
:1004900001D000D083D082D0E0D0A822C2AFF890A3
:1004A00000988582328583339004CF310DD0E0FAF5
:1004B000D0E0C39402F9EA94003121E9312174209B
:1004C0003108E83121740D3108740A310880FE0DBD
:0E04D0000A202121212070616E696320400006
:00000001FF
