:100000007581509000B98582308583319000B1852B
:10001000823285833311A7538EE1438E1090000006
:100020008582388583397404F540F0A3E4F541F006
:10003000A37542FF85064374FCF0A37406F0A3E4A5
:10004000F0A3F0A374FCF0A37406F0A311C1B444B0
:100050002611C68834893511C6E8A834A9357A0036
:100060007B00C030C031900266858230858331319B
:10007000AAD031D03080D5B4410811C6518931554C
:10008000801BB4521411C6E8FCE9FD11C6E8FAE978
:10009000FBECF8EDF9714E8004743F3125740D319D
:1000A00025740A312580A5759852759ABF759B1ED7
:1000B000223099FDC299F599223098FDC298E599B0
:1000C00022C030C03122C0E0ECC0E0EDC0E0E4F876
:1000D000F9FAFB11C1C394304042B40A00400D94B8
:1000E000114039240A54DFB410005030FCE8C4FD3C
:1000F00054F04CF8ED540FFCE9C4FD54F04CF9ED0C
:10010000540FFCEAC4FD54F04CFAED540FFCEBC460
:10011000FD54F04CFBED540F700280B7D0E0FDD0E1
:10012000E0FCD0E022C032C03322C0E0E8C0E0E40E
:10013000F8936006312508E870F7D0E0F8D0E022A7
:10014000C43144C4C0E0540F2490D43440D444207B
:100150003125D0E022C0E0E93140E83140D0E02252
:10016000C0E0EB3140EA3140E93140E83140D0E0D5
:1001700022C8CCC8C9CDC9CACECACBCFCB22C0E019
:10018000E5D05418B418029174E5D02408F5D05481
:100190001824F8F8D0E022C0E0E5D054187002919D
:1001A00074E5D024F8F5D0D0E022C0F0C0E0F5F03E
:1001B000ECC0E0EDC0E0EEC0E0EFC0E03171E58101
:1001C000F82410F581791011C108F6D5F0031980D3
:1001D00002D9F4317131603171743A3125E824F07B
:1001E00029F87A1008EA5403700474203125EAD300
:1001F0009950087420312531258003E63140742060
:100200003125DAE0E824F0F874203125747C3125BA
:100210007410C399F9FA08E6B420004005B47F00D1
:100220004002742E3125DAEE747C3125740D3125AF
:10023000740A3125E824F0F8EC29FCED3400FDEED9
:100240003400FEEF3400FFE5F0600221C5E58124B3
:10025000F0F5813171D0E0FFD0E0FED0E0FDD0E0DC
:10026000FCD0E0D0F022C08EC082C083E58E55E184
:100270004510F58E853482853583E0A385823485EB
:100280008335D083D082D08E22C0A8C2AFC0E0C058
:1002900082C083317EE6FE08E6FFEE4F7002917465
:1002A000EE240354FCFEEF3400FFAA38AB398A82F7
:1002B0008B83E0FCA3E0FDEC4D700291748C828D89
:1002C00083A3A3E0F9A3C3E09F701CE99E70188A82
:1002D000828B8305A28C828D83E0A305A2F0A30507
:1002E000A2E005A2F08047500FECFAEDFB8C828D66
:1002F00082E0FCA3E0FD80BF8A828B83EC2EFAF0C3
:10030000A3ED3FFBF08A828B8305A28C828D83E074
:10031000A305A2F0A305A2E0A305A2F0A305A2E015
:10032000A3C39E05A2F0A305A2E09F05A2F0853815
:1003300082853983A3A3E0C39EF0A3E09FF0EDF68E
:1003400018ECF63197D083D082D0E0D0A822C0A894
:10035000C2AFC0E0C082C083317EE82403F8E6FF6C
:1003600018E6FE18E6F918E6F8EE4F70029174E907
:10037000B54104E8B5400050029174E9B54304E882
:10038000B5420040029174EE240354FCFEEF3400A9
:10039000FFAA38AB398A828B83E0FCA3E0FDEC4DE9
:1003A000601CC3ED997006EC9870029174500FECCC
:1003B000FAEDFB8C828D83E0FCA3E0FD80E0EBB5E1
:1003C0003906EAB5380280308A828B83A3A3E02AFB
:1003D000C0E0A3E03BF583D082E9B58317E8B5829E
:1003E000138A828B83A3A3E02EF0A3E03FF0EAF808
:1003F000EBF9801C5002917488828983ECF0A3EDA4
:10040000F0A3EEF0A3EFF08A828B83E8F0A3E9F08B
:1004100088828983A3A3E028FAA3E039F5838A823E
:10042000EDB58332ECB5822E8882898305A28C8259
:100430008D83E0A305A2F0A305A2E0A305A2F0A38B
:1004400005A2E0A3FA05A2E02AF0A305A2E0FB05BD
:10045000A2E03BF080045002917485388285398394
:10046000A3A3E02EF0A3E03FF03197D083D082D059
:10047000E0D0A822C2AF9000B1858232858333904C
:10048000048E312AD0E03140D0E0314080FE0D0AA8
:0D049000202121212070616E696320400051
:00000001FF
