:1000000075814090007185823085833190006985CB
:100010008232858333115FE58E55E14510F58E11EF
:1000200079B46415117E88348935117EE8A834A925
:10003000357A007B00316280E6B46708117E511E7C
:10004000311880DBB46612117EE8FCE9FD117EE810
:10005000FAE9FBECF8EDF95125743F11DD80C0752C
:100060009852759ABF759B1E223099FDC299F599D9
:10007000223098FDC298E59922C030C03122C0E0FC
:10008000ECC0E0EDC0E0E4F8F9FAFB1179C394307C
:100090004042B40A00400D94114039240A54DFB4A0
:1000A00010005030FCE8C4FD54F04CF8ED540FFC47
:1000B000E9C4FD54F04CF9ED540FFCEAC4FD54F0D2
:1000C0004CFAED540FFCEBC4FD54F04CFBED540F17
:1000D000700280B7D0E0FDD0E0FCD0E022C032C09A
:1000E0003322C0E0E8C0E0E4F893600611DD08E8E0
:1000F00070F7D0E0F8D0E022C411FCC4C0E0540F87
:100100002490D43440D4442011DDD0E022C0E0E972
:1001100011F8E811F8D0E022C0E0EB11F8EA11F88C
:10012000E911F8E811F8D0E022C8CCC8C9CDC9CA95
:10013000CECACBCFCB22C0E0E5D05418B4180251C0
:100140002CE5D02408F5D0541824F8F8D0E022C0CB
:10015000E0E5D054187002512CE5D024F8F5D0D049
:10016000E022C0F0C0E0F5F0ECC0E0EDC0E0EEC091
:10017000E0EFC0E03129E581F82410F58179101114
:100180007908F6D5F003198002D9F43129311831F4
:1001900029743A11DDE824F029F87A1008EA5403AA
:1001A0007004742011DDEAD3995008742011DD1118
:1001B000DD8003E611F8742011DDDAE0E824F0F8C0
:1001C000742011DD747C11DD7410C399F9FA08E60E
:1001D000B420004005B47F004002742E11DDDAEE39
:1001E000747C11DD740D11DD740A11DDE824F0F862
:1001F000EC29FCED3400FDEE3400FEEF3400FFE5A9
:10020000F06002217DE58124F0F5813129D0E0FF05
:10021000D0E0FED0E0FDD0E0FCD0E0D0F022C0A8DD
:10022000C2AFD0A822C0A8C2AFD0A822C2AF90004F
:100230006985823285833390024611E2D0E011F85D
:10024000D0E011F880FE0D0A202121212070616E7E
:0502500069632040007D
:00000001FF
