:10000000758150317890016631A990017331A9E46E
:1000100031BF240120D60790017631A980F29001EA
:100020007331A970EB31A9780079007B0C31D4E8E9
:100030002455F8E93400F94012DB097B0C90017378
:1000400031A980E990017631A980E290017331A94C
:1000500031A9900173E4F8F9FAFB7C01FDFEFF3150
:10006000DF31A9E82CF8E93DF9EA3EFAEB3FFBEC79
:10007000C8FCEDC9FDEECAFEEFCBFF50E231DF3127
:10008000A931A9E45103240120D60790017631A9B2
:1000900080F290017331A970EB31A9748031F024A2
:1000A0000120D21120D60790017631A980EF90016E
:1000B0007331A980E890017331A931A978007900E2
:1000C0007B0A514FE82433F8E93400F94012DB0988
:1000D0007B0A90017331A980E990017631A980E211
:1000E00090017331A931A9780079807B0A5134E8F5
:1000F000247FF8E93400F920D212DB097B0A900151
:100100007331A980E890017631A980E190017331C3
:10011000A931A9900173E4F8F9FAFB7C01FDFEFF17
:10012000711831A9E82CF8E93DF9EA3EFAEB3FFBFA
:10013000ECC8FCEDC9FDEECAFEEFCBFF50E2711832
:1001400031A931A9900173E4F8F9FA7B8051E631C5
:10015000A9E82415F8E934CDF9EA345BFAEB340761
:10016000FB30D2E9216448656C6C6F2C20776F728C
:100170006C64210D0A002000759852759ABF759B1A
:100180001E90019485823085833190019C85823256
:10019000858333223098FDC298E599223099FDC2BB
:1001A00099F59922C032C03322C0E0E8C0E0E4F8FB
:1001B00093600631A408E870F7D0E0F8D0E022C4DC
:1001C00031C3C4C0E0540F2490D43440D44420310F
:1001D000A4D0E022C0E0E931BFE831BFD0E022C0C6
:1001E000E0EB31BFEA31BFE931BFE831BFD0E022F7
:1001F000C0E0C0F030E710F5F0742D31A4E5F0F464
:10020000048004C0E0C0F088F0C0F0780075F064AD
:10021000846005243031A408E5F075F00A84286074
:100220000598243031A4E5F0243031A4D0E0F8D092
:10023000F0D0E022C0E0E8C0E0E9C0E030E71874A8
:100240002D31A4E8F42401F8E9F43400F98008C061
:10025000E0E8C0E0E9C0E0EBC0E0C0F07A0075F093
:10026000FFC3E89410F8E99427F905F050F4E82466
:1002700010F8E93427F9E5F06005243031A40A7557
:10028000F0FFC3E894E8F8E99403F905F050F4E8C6
:1002900024E8F8E93403F9E5F02A60069A243031BD
:1002A000A40A75F0FFC3E89464F8E99400F905F036
:1002B00050F4E82464F8E93400F9E5F02A60069A7D
:1002C000243031A40AE875F00A842A60059A2430A3
:1002D00031A4E5F0243031A4D0F0D0E0FAD0E0F938
:1002E000D0E0F8D0E022C0E0C0F0C082C08371AF9F
:1002F000E6FC08E6FD08E6FE08E6FF30E72F742D71
:1003000031A4ECF42401FCEDF43400FDEEF43400EF
:10031000FEEFF43400FF8015C0E0C0F0C082C0835F
:1003200071AFE6FC08E6FD08E6FE08E6FF75F000A2
:10033000900364E493F8A3E493F9A3E493FAA3E4A9
:1003400093FBA3718825F0600895F0243005F03107
:10035000A4B80ADFEC243031A471C8D083D082D095
:10036000F0D0E02200CA9A3B00E1F50580969800A3
:1003700040420F00A086010010270000E8030000A3
:10038000640000000A000000C0F0C375F0FFEC98A4
:10039000FCED99FDEE9AFEEF9BFF05F050F0EC2886
:1003A000FCED39FDEE3AFEEF3BFFE5F0D0F022C068
:1003B000E0E5D05418B4180271DBE5D02408F5D07C
:1003C000541824F8F8D0E022C0E0E5D054187002A8
:1003D00071DBE5D024F8F5D0D0E022C2AF90019CCB
:1003E0008582328583339003F531A9D0E031BFD0C7
:1003F000E031BF80FE0D0A202121212070616E694D
:040400006320400035
:00000001FF
