:1000000075814090014385823085833190014B8515
:100010008232858333313990012731589001343150
:1000200058E4316E240120D607900137315880F210
:10003000900134315870EB3158780079007B0C31E5
:1000400083E82455F8E93400F94012DB097B0C9071
:100050000134315880E9900137315880E290013401
:1000600031583158900134E4F8F9FAFB7C01FDFE77
:10007000FF318E3158E82CF8E93DF9EA3EFAEB3FC2
:10008000FBECC8FCEDC9FDEECAFEEFCBFF50E23140
:100090008E31583158E431B2240120D6079001370F
:1000A000315880F2900134315870EB3158748031FE
:1000B0009F240120D21120D607900137315880EFBC
:1000C000900134315880E89001343158315878002B
:1000D00079007B0A31FEE82433F8E93400F9401254
:1000E000DB097B0A900134315880E990013731589F
:1000F00080E290013431583158780079807B0A31A0
:10010000E3E8247FF8E93400F920D212DB097B0A06
:10011000900134315880E8900137315880E19001E6
:100120003431583158212548656C6C6F2C20776F1D
:10013000726C64210D0A002000759852759ABF7583
:100140009B1E223098FDC298E599223099FDC299F4
:10015000F59922C032C03322C0E0E8C0E0E4F89351
:100160006006315308E870F7D0E0F8D0E022C431DF
:1001700072C4C0E0540F2490D43440D4442031538E
:10018000D0E022C0E0E9316EE8316ED0E022C0E07C
:10019000EB316EEA316EE9316EE8316ED0E022C0AB
:1001A000E0C0F030E710F5F0742D3153E5F0F404C1
:1001B0008004C0E0C0F088F0C0F0780075F064847E
:1001C00060052430315308E5F075F00A8428600595
:1001D0009824303153E5F024303153D0E0F8D0F09A
:1001E000D0E022C0E0E8C0E0E9C0E030E718742DBC
:1001F0003153E8F42401F8E9F43400F98008C0E050
:10020000E8C0E0E9C0E0EBC0E0C0F07A0075F0FFC4
:10021000C3E89410F8E99427F905F050F4E82410A5
:10022000F8E93427F9E5F06005243031530A75F018
:10023000FFC3E894E8F8E99403F905F050F4E824E2
:10024000E8F8E93403F9E5F02A60069A24303153DE
:100250000A75F0FFC3E89464F8E99400F905F050DA
:10026000F4E82464F8E93400F9E5F02A60069A24F9
:100270003031530AE875F00A842A60059A24303137
:1002800053E5F024303153D0F0D0E0FAD0E0F9D08B
:05029000E0F8D0E022BF
:00000001FF
