:1000000075816075D0007800743F08F6B81FFB74E6
:100010002A08F6B85FFB747E08F6B8FFFB112511BD
:100020005611DA80FA759852759ABF759B1E90002A
:1000300049858230858331900041858232858333C2
:10004000223099FDC299F599223098FDC298E59920
:1000500022C030C03122C0E0ECC0E0EDC0E0E4F8E6
:10006000F9FAFB1151C394304042B40A00400D9498
:10007000114039240A54DFB410005030FCE8C4FDAC
:1000800054F04CF8ED540FFCE9C4FD54F04CF9ED7C
:10009000540FFCEAC4FD54F04CFAED540FFCEBC4D1
:1000A000FD54F04CFBED540F700280B7D0E0FDD052
:1000B000E0FCD0E022C032C03322C411BEC4C0E094
:1000C000540F2490D43440D4442011B5D0E022C041
:1000D000E0E911BAE811BAD0E022C0E0EB11BAEAC7
:0B00E00011BAE911BAE811BAD0E02211
:00000001FF
