:1000000075816075D0007800743F08F6B81FFB74E6
:100010002A08F6B85FFB747E08F6B8FFFB112511BD
:100020005611D680FA759852759ABF759B1E90002E
:1000300049858230858331900041858232858333C2
:10004000223099FDC299F599223098FDC298E59920
:1000500022C030C03122C0E0C004C005E4F8F9FA83
:10006000FB1151C394304042B40A00400D9411403A
:1000700039240A54DFB410005030FCE8C4FD54F0B9
:100080004CF8ED540FFCE9C4FD54F04CF9ED540F5D
:10009000FCEAC4FD54F04CFAED540FFCEBC4FD54E3
:1000A000F04CFBED540F700280B7D005D004D0E0C7
:1000B00022C032C03322C411BAC4C0E0540F24900D
:1000C000D43440D4442011B1D0E022C0E0E911B6CC
:1000D000E811B6D0E022C0E0EB11B6EA11B6E911A2
:0700E000B6E811B6D0E022E2
:00000001FF
