:10000000758150114A1181511D513D740D51187463
:100010000A5118538EE1438E10E4F582F583F8F906
:10002000FAFB3199ECF8EDF95132740D5118740A5C
:100030005118E4F8F9FAFBF534F53590026485823D
:10004000308583315199519980FE759852759ABFC8
:10005000759B1E90006E8582308583319000668589
:100060008232858333223099FDC299F599223098E6
:10007000FDC298E59922F5C5E5C4548060FAE5C54E
:1000800022EDC0E075C3F111C711DC7D0511EBB4A1
:1000900001311D11FBB4012B1DBB0027BA0024B98F
:1000A0000121B8AA1E7D643113600A740A31D0DDC3
:1000B000F67D02800E7D01313B1D900199858244C1
:1000C000858345D0E0CD22C0E0C0F0D29175F00A22
:1000D00074FF1176D5F0F9D0F0D0E022C0E074FFC3
:1000E0001176C29174FF1176D0E02231ECE4F8F978
:1000F000FAFB7C94314F3169510522ECC0E0740861
:1001000078AA79017A007B007C86314F317BFCD064
:10011000E0CC22312AB4011131ECE4F8F9FA7B4049
:10012000FC7429314F316951052231ECE4F8F9FAB8
:10013000FBFC7437314F3169510522ECC0E0E4F823
:10014000F9FAFBFC743A314F317BFCD0E0CC22C091
:10015000E044401176EB1176EA1176E91176E81168
:1001600076EC44011176D0E022C0F08508F074FFEF
:100170001176B4FF03D5F0F6D0F0223169B4020055
:10018000400122F874FF1176FB74FF1176FA74FFB8
:100190001176F974FF1176C822C0E074117CFF312A
:1001A0004F3169B4FEFB7D0074FF1176F0A374FF3C
:1001B0001176F0A3DDF274FF1176FD74FF1176FC69
:1001C000740128F8E439F9E43AFAE43BFBD0E02280
:1001D000C0E0C0F075F0B9C0E0C0F0A4A4D0F0D089
:1001E000E0D5F0F3D5E0EDD0F0D0E022C0E0E5D0EE
:1001F0005418B418027155E5D02408F5D0541824C9
:10020000F8F8D0E022C0E0E5D0541870027155E54E
:10021000D024F8F5D0D0E022C032C03322C451211E
:10022000C4C0E0540F2490D43440D444205118D09A
:10023000E022C0E0E9511DE8511DD0E022C0E0EB12
:10024000511DEA511DE9511DE8511DD0E022C0E0C9
:10025000E8C0E0E4F8936006511808E870F7D0E0D1
:10026000F8D0E022C08EC082C083E58E55E14510F3
:10027000F58E853482853583E0A385823485833588
:10028000D083D082D08E22C030C03122C8CCC8C921
:10029000CDC9CACECACBCFCB22C0F0C0E0F5F0ECBE
:1002A000C0E0EDC0E0EEC0E0EFC0E0518CE581F8C9
:1002B0002410F5817910518708F6D5F003198002D2
:1002C000D9F4518C513D518C743A5118E824F029DD
:1002D000F87A1008EA5403700474205118EAD3998C
:1002E00050087420511851188003E6511D74205194
:1002F00018DAE0E824F0F874205118747C5118746E
:1003000010C399F9FA08E6B420004005B47F004014
:1003100002742E5118DAEE747C5118740D51187451
:100320000A5118E824F0F8EC29FCED3400FDEE3415
:1003300000FEEF3400FFE5F0600241B4E58124F0F7
:10034000F581518CD0E0FFD0E0FED0E0FDD0E0FCA4
:10035000D0E0D0F022C2AF90006685823285833330
:1003600090036F514ED0E0511DD0E0511D80FE0D25
:0E0370000A202121212070616E696320400067
:00000001FF
