:1000000075815090006E85823085833190006685C1
:100010008232858333115C118151145134740D5136
:100020000F740A510F538EE1438E10E4F582F5836D
:10003000F8F9FAFB3190ECF8EDF95129740D510FF4
:10004000740A510FE4F8F9FAFBF534F53590025BC8
:100050008582308583315190519080FE759852751C
:100060009ABF759B1E223099FDC299F5992230984E
:10007000FDC298E59922F5C5E5C4548060FAE5C54E
:1000800022EDC0E075C3F111BE11D37D0511E2B4BC
:1000900001281D11F2B401221DBB001EBA001BB9BC
:1000A0000118B8AA157D64310A600A740A31C7DDE7
:1000B000F67D0280057D0131321DD0E0CD22C0E009
:1000C000C0F0D29175F00A74FF1176D5F0F9D0F036
:1000D000D0E022C0E074FF1176C29174FF1176D097
:1000E000E02231E3E4F8F9FAFB7C943146316031E7
:1000F000FC22ECC0E0740878AA79017A007B007CCD
:100100008631463172FCD0E0CC223121B40111316C
:10011000E3E4F8F9FA7B40FC74293146316031FCA4
:100120002231E3E4F8F9FAFBFC74373146316031EF
:10013000FC22ECC0E0E4F8F9FAFBFC743A314631F9
:1001400072FCD0E0CC22C0E044401176EB1176EA9C
:100150001176E91176E81176EC44011176D0E022AF
:10016000C0F08508F074FF1176B4FF03D5F0F6D027
:10017000F0223160B40200400122F874FF1176FBD6
:1001800074FF1176FA74FF1176F974FF1176C822A4
:10019000C0E074117CFF31463160B4FEFB7D007419
:1001A000FF1176F0A374FF1176F0A3DDF274FF1156
:1001B00076FD74FF1176FC740128F8E439F9E43A0D
:1001C000FAE43BFBD0E022C0E0C0F075F0B9C0E03B
:1001D000C0F0A4A4D0F0D0E0D5F0F3D5E0EDD0F09D
:1001E000D0E022C0E0E5D05418B41802714CE5D03C
:1001F0002408F5D0541824F8F8D0E022C0E0E5D067
:1002000054187002714CE5D024F8F5D0D0E022C02B
:1002100032C03322C45118C4C0E0540F2490D434E7
:1002200040D44420510FD0E022C0E0E95114E851FD
:1002300014D0E022C0E0EB5114EA5114E95114E863
:100240005114D0E022C0E0E8C0E0E4F89360065129
:100250000F08E870F7D0E0F8D0E022C08EC082C06E
:1002600083E58E55E14510F58E853482853583E032
:10027000A3858234858335D083D082D08E22C0304E
:10028000C03122C8CCC8C9CDC9CACECACBCFCB22B7
:10029000C0F0C0E0F5F0ECC0E0EDC0E0EEC0E0EF93
:1002A000C0E05183E581F82410F5817910517E0872
:1002B000F6D5F003198002D9F45183513451837477
:1002C0003A510FE824F029F87A1008EA5403700430
:1002D0007420510FEAD39950087420510F510F80A8
:1002E00003E651147420510FDAE0E824F0F874208A
:1002F000510F747C510F7410C399F9FA08E6B420B9
:10030000004005B47F004002742E510FDAEE747C79
:10031000510F740D510F740A510FE824F0F8EC29B5
:10032000FCED3400FDEE3400FEEF3400FFE5F0603C
:100330000241ABE58124F0F5815183D0E0FFD0E0AC
:10034000FED0E0FDD0E0FCD0E0D0F022C2AF9000C3
:10035000668582328583339003665145D0E051141F
:10036000D0E0511480FE0D0A202121212070616E01
:0503700069632040005C
:00000001FF
