:1000000075816075D0007800743F08F6B81FFB74E6
:100010002A08F6B85FFB747E08F6B8FFFB310031A2
:100020003751CC51EC740D51C7740A51C7538EE14E
:10003000438E10E4F582F583F8F9FAFB5181ECF870
:10004000EDF951E1740D51C7740A51C7E4F8F9FA9A
:10005000FBF534F535900313858230858331714685
:04006000714680FE67
:10010000759852759ABF759B1E9001248582308523
:10011000833190011C858232858333223099FDC260
:1001200099F599223098FDC298E59922F5C5E5C464
:10013000548060FAE5C522EDC0E0C082C08375C37B
:10014000F13185319A7D0531A9B401311D31C9B430
:10015000012B1DBB0027BA0024B90121B8AA1E7DBE
:100160006431DE600A740A51ABDDF67D02800E7DDB
:100170000151261D900281858244858345D083D01C
:1001800082D0E0CD22C0E0C0F0D29175F00A74FFB9
:10019000312CD5F0F9D0F0D0E022C0E074FF312C42
:1001A000C29174FF312CD0E022C000C001C002C057
:1001B00003C004E4F8F9FAFB7C9451375151D004A0
:1001C000D003D002D001D00022C004740878AA79EC
:1001D000017A007B007C8651375163D0042251059F
:1001E000B40121C000C001C002C003C004E4F8F99A
:1001F000FA7B40FC742951375151D004D003D0020E
:10020000D001D00022C000C001C002C003C004E47D
:10021000F8F9FAFBFC743751375151D004D003D0B0
:1002200002D001D00022C004E4F8F9FAFBFC743AD1
:1002300051375163D00422C0E04440312CEB312CC3
:10024000EA312CE9312CE8312CEC4401312CD0E09E
:1002500022C0F08508F074FF312CB4FF03D5F0F60E
:10026000D0F0225151B40200400122F874FF312C29
:10027000FB74FF312CFA74FF312CF974FF312CC858
:1002800022C0E074117CFF51375151B4FEFB7D0058
:1002900074FF312CF0A374FF312CF0A3DDF274FF56
:1002A000312CFD74FF312CFCD0E022C0E0C0F07591
:1002B000F0B9C0E0C0F0A4A4D0F0D0E0D5F0F3D500
:1002C000E0EDD0F0D0E022C032C03322C451D0C41F
:1002D000C0E0540F2490D43440D4442051C7D0E01F
:1002E00022C0E0E951CCE851CCD0E022C0E0EB5193
:1002F000CCEA51CCE951CCE851CCD0E022C0E0E8C6
:10030000C0E0E4F893600651C708E870F7D0E0F861
:10031000D0E022C08EC082C083538EE1438E108510
:100320003482853583E0A3858234858335D083D0BC
:1003300082D08E22C030C03122C8CCC8C9CDC9CA33
:10034000CECACBCFCB22C0F0C0E0F5F0C004C005D0
:10035000C006C0077139E581F82410F58179107164
:100360003408F6D5F003198002D9F4713951EC71D3
:1003700039743A51C7E824F029F87A1008EA54038E
:100380007004742051C7EAD3995008742051C751A2
:10039000C78003E651CC742051C7DAE0E824F0F8B6
:1003A000742051C7747C51C77410C399F9FA08E6D8
:1003B000B420004005B47F004002742E51C7DAEE2D
:1003C000747C51C7740D51C7740A51C7E824F0F802
:1003D000EC29FCED3400FDEE3400FEEF3400FFE5C7
:1003E000F06002615DE58124F0F5817139D007D0BC
:1003F00006D005D004D0E0D0F022C2AFF890011CA6
:1004000085823285833390042D51FDD0E0FAD0E00F
:10041000C39402F9EA940051CCE951CC742051C73D
:10042000E851CC740D51C7740A51C780FE0D0A20E3
:0C0430002121212070616E6963204000D2
:00000001FF
