:1000000075816075D0007800743F08F6B81FFB74E6
:100010002A08F6B85FFB747E08F6B8FFFB310031A2
:100020003751CE51EE740D51C9740A51C9538EE146
:10003000438E10E4F582F583F8F9FAFB5157ECF89A
:10004000EDF951E3740D51C9740A51C9E4F8F9FA94
:10005000FBF534F535900315858230858331714881
:04006000714880FE65
:10010000759852759ABF759B1E9001248582308523
:10011000833190011C858232858333223099FDC260
:1001200099F599223098FDC298E59922F5C5E5C464
:10013000548060FAE5C522EDC0E0C082C08375C37B
:10014000F13185319A7D0531A9B401311D31B9B440
:10015000012B1DBB0027BA0024B90121B8AA1E7DBE
:100160006431D1600A740A5181DDF67D02800E7D12
:100170000131F91D900257858244858345D083D093
:1001800082D0E0CD22C0E0C0F0D29175F00A74FFB9
:10019000312CD5F0F9D0F0D0E022C0E074FF312C42
:1001A000C29174FF312CD0E022519DE4F8F9FAFBA2
:1001B0007C94510D512751B622ECC0E0740878AA06
:1001C00079017A007B007C86510D5139FCD0E0CC5E
:1001D0002231E8B40111519DE4F8F9FA7B40FC7436
:1001E00029510D512751B622519DE4F8F9FAFBFC33
:1001F0007437510D512751B622ECC0E0E4F8F9FAFA
:10020000FBFC743A510D5139FCD0E0CC22C0E044E3
:1002100040312CEB312CEA312CE9312CE8312CEC3B
:100220004401312CD0E022C0F08508F074FF312C5D
:10023000B4FF03D5F0F6D0F0225127B402004001FC
:1002400022F874FF312CFB74FF312CFA74FF312C2F
:10025000F974FF312CC822C0E074117CFF510D519C
:1002600027B4FEFB7D0074FF312CF0A374FF312C0A
:10027000F0A3DDF274FF312CFD74FF312CFCD0E0D3
:1002800022C0E0C0F075F0B9C0E0C0F0A4A4D0F086
:10029000D0E0D5F0F3D5E0EDD0F0D0E022C0E0E53D
:1002A000D05418B418029104E5D02408F5D054189D
:1002B00024F8F8D0E022C0E0E5D054187002910490
:1002C000E5D024F8F5D0D0E022C032C03322C451AA
:1002D000D2C4C0E0540F2490D43440D4442051C937
:1002E000D0E022C0E0E951CEE851CED0E022C0E01B
:1002F000EB51CEEA51CEE951CEE851CED0E022C04A
:10030000E0E8C0E0E4F893600651C908E870F7D06F
:10031000E0F8D0E022C08EC082C083538EE1438ECD
:1003200010853482853583E0A3858234858335D07A
:1003300083D082D08E22C030C03122C8CCC8C9CD73
:10034000C9CACECACBCFCB22C0F0C0E0F5F0ECC01A
:10035000E0EDC0E0EEC0E0EFC0E0713BE581F824E5
:1003600010F5817910713608F6D5F003198002D99D
:10037000F4713B51EE713B743A51C9E824F029F80D
:100380007A1008EA54037004742051C9EAD39950D2
:1003900008742051C951C98003E651CE742051C957
:1003A000DAE0E824F0F8742051C9747C51C9741063
:1003B000C399F9FA08E6B420004005B47F00400272
:1003C000742E51C9DAEE747C51C9740D51C9740A86
:1003D00051C9E824F0F8EC29FCED3400FDEE3400BE
:1003E000FEEF3400FFE5F060026163E58124F0F583
:1003F00081713BD0E0FFD0E0FED0E0FDD0E0FCD04A
:10040000E0D0F022C2AFF890011C858232858333A0
:1004100090042E51FFD0E051CED0E051CE74205147
:10042000C9E851CE740D51C9740A51C980FE0D0A34
:0D043000202121212070616E6963204000B1
:00000001FF
