:1000000075816075D0007800743F08F6B81FFB74E6
:100010002A08F6B85FFB747E08F6B8FFFB310031A2
:100020003751CB51EB740D51C6740A51C6538EE152
:10003000438E10E4F582F583F8F9FAFB5180ECF871
:10004000EDF951E0740D51C6740A51C6E4F8F9FA9D
:10005000FBF534F535900312858230858331714587
:04006000714580FE68
:10010000759852759ABF759B1E9001248582308523
:10011000833190011C858232858333223099FDC260
:1001200099F599223098FDC298E59922F5C5E5C464
:10013000548060FAE5C522C005C082C08375C3F152
:10014000318431997D0531A8B401311D31C8B40124
:100150002B1DBB0027BA0024B90121B8AA1E7D645B
:1001600031DD600A740A51AADDF67D02800E7D0140
:1001700051251D900280858244858345EDD083D032
:1001800082D00522C0E0C0F0D29175F00A74FF3130
:100190002CD5F0F9D0F0D0E022C0E074FF312CC2B1
:1001A0009174FF312CD0E022C000C001C002C00316
:1001B000C004E4F8F9FAFB7C9451365150D004D0D5
:1001C00003D002D001D00022C004740878AA7901BB
:1001D0007A007B007C8651365162D004225104B4EF
:1001E0000121C000C001C002C003C004E4F8F9FA54
:1001F0007B40FC742951365150D004D003D002D03A
:1002000001D00022C000C001C002C003C004E4F855
:10021000F9FAFBFC743751365150D004D003D002A8
:10022000D001D00022C004E4F8F9FAFBFC743A5182
:10023000365162D00422C0E04440312CEB312CEA2C
:10024000312CE9312CE8312CEC4401312CD0E02266
:10025000C0F08508F074FF312CB4FF03D5F0F6D060
:10026000F0225150B40200400122F874FF312CFBFF
:1002700074FF312CFA74FF312CF974FF312CC82231
:10028000C0E074117CFF51365150B4FEFB7D007408
:10029000FF312CF0A374FF312CF0A3DDF274FF3199
:1002A0002CFD74FF312CFCD0E022C0E0C0F075F0D2
:1002B000B9C0E0C0F0A4A4D0F0D0E0D5F0F3D5E010
:1002C000EDD0F0D0E022C032C03322C451CFC4C040
:1002D000E0540F2490D43440D4442051C6D0E022BE
:1002E000C0E0E951CBE851CBD0E022C0E0EB51CBEC
:1002F000EA51CBE951CBE851CBD0E022C0E0E8C0D5
:10030000E0E4F893600651C608E870F7D0E0F8D052
:10031000E022C08EC082C083538EE1438E108534AC
:1003200082853583E0A3858234858335D083D0826E
:10033000D08E22C030C03122C8CCC8C9CDC9CACEE7
:10034000CACBCFCB22C0F0C0E0F5F0C004C005C0DE
:1003500006C0077138E581F82410F58179107133F2
:1003600008F6D5F003198002D9F4713851EB7138D1
:10037000743A51C6E824F029F87A1008EA54037058
:1003800004742051C6EAD3995008742051C651C64E
:100390008003E651CB742051C6DAE0E824F0F8740B
:1003A0002051C6747C51C67410C399F9FA08E6B49A
:1003B00020004005B47F004002742E51C6DAEE746E
:1003C0007C51C6740D51C6740A51C6E824F0F8EC8D
:1003D00029FCED3400FDEE3400FEEF3400FFE5F0C3
:1003E0006002615CE58124F0F5817138D007D006A8
:1003F000D005D004D0E0D0F022C2AFF890011C8527
:10040000823285833390042C51FCD0E0FAD0E0C3D3
:100410009402F9EA940051CBE951CB742051C6E81B
:1004200051CB740D51C6740A51C680FE0D0A2021AD
:0B04300021212070616E6963204000F4
:00000001FF
