:1000000075815090006C85823085833190007485B5
:1000100082328583331162C032C03390009F858263
:1000200032858333900180858236858337900054F2
:1000300011CBA836A9373171D033D032E4FBFAF9AD
:10004000F8F534F53590007C85823085833151D6C2
:1000500051D680FE48656C6C6F2C205852414D3A49
:100060002000759852759ABF759B1E223098FDC26C
:1000700098E599223099FDC299F59922C08EC082E7
:10008000C083E58E55E14510F58E85348285358334
:10009000E0A3858234858335D083D082D08E22C080
:1000A0008EC082C083F582E58E55E14510F58EE560
:1000B00082853682853783F0A3858236858337D063
:1000C00083D082D08E22C032C03322C0E0E8C0E0AC
:1000D000E4F893600611C608E870F7D0E0F8D0E0C5
:1000E00022C411E5C4C0E0540F2490D43440D44459
:1000F0002011C6D0E022C0E0E911E1E811E1D0E032
:1001000022C0E0EB11E1EA11E1E911E1E811E1D0EF
:10011000E022C0E0C0F030E710F5F0742D11C6E524
:10012000F0F4048004C0E0C0F088F0C0F0780075FE
:10013000F064846005243011C608E5F075F00A8487
:1001400028600598243011C6E5F0243011C6D0E0AF
:10015000F8D0F0D0E022C0E0E8C0E0E9C0E030E74D
:1001600018742D11C6E8F42401F8E9F43400F9807C
:1001700008C0E0E8C0E0E9C0E0EBC0E0C0F07A0011
:1001800075F0FFC3E89410F8E99427F905F050F4EE
:10019000E82410F8E93427F9E5F06005243011C6A9
:1001A0000A75F0FFC3E894E8F8E99403F905F05004
:1001B000F4E824E8F8E93403F9E5F02A60069A2423
:1001C0003011C60A75F0FFC3E89464F8E99400F9A9
:1001D00005F050F4E82464F8E93400F9E5F02A6009
:1001E000069A243011C60AE875F00A842A60059A36
:1001F000243011C6E5F0243011C6D0F0D0E0FAD09A
:10020000E0F9D0E0F8D0E022C0E0C0F0C082C083C6
:10021000719FE6FC08E6FD08E6FE08E6FF30E72FE2
:10022000742D11C6ECF42401FCEDF43400FDEEF461
:100230003400FEEFF43400FF8015C0E0C0F0C0824F
:10024000C083719FE6FC08E6FD08E6FE08E6FF7540
:10025000F000900286E493F8A3E493F9A3E493FA00
:10026000A3E493FBA351AA25F0600895F024300580
:10027000F011C6B80ADFEC243011C671B8D083D0B3
:1002800082D0F0D0E02200CA9A3B00E1F5058096CA
:10029000980040420F00A086010010270000E803EC
:1002A0000000640000000A000000C0F0C375F0FF09
:1002B000EC98FCED99FDEE9AFEEF9BFF05F050F0F7
:1002C000EC28FCED39FDEE3AFEEF3BFFE5F0D0F017
:1002D00022C030C03122C0F0C0E0F5F0ECC0E0ED4B
:1002E000C0E0EEC0E0EFC0E07192E581F82410F5C7
:1002F00081791051D108F6D5F003198002D9F47133
:100300009231017192743A11C6E824F029F87A10FA
:1003100008EA54037004742011C6EAD39950087493
:100320002011C611C68003E611E1742011C6DAE07F
:10033000E824F0F8742011C6747C11C67410C399B7
:10034000F9FA08E6B420004005B47F004002742E9C
:1003500011C6DAEE747C11C6740D11C6740A11C68A
:10036000E824F0F8EC29FCED3400FDEE3400FEEF5B
:100370003400FFE5F0600241F1E58124F0F5817180
:1003800092D0E0FFD0E0FED0E0FDD0E0FCD0E0D0A5
:10039000F022C8CCC8C9CDC9CACECACBCFCB22C0E7
:1003A000E0E5D05418B4180271CBE5D02408F5D09C
:1003B000541824F8F8D0E022C0E0E5D054187002B8
:1003C00071CBE5D024F8F5D0D0E022C2AF90007414
:1003D0008582328583339003E511CBD0E011E1D0E3
:1003E000E011E180FE0D0A202121212070616E695B
:0403F0006320400046
:00000001FF
