:100000007581501158C032C03390008F858232857F
:10001000833375368090003B119FE53611F9A83681
:1000200074FFF6D033D032E4FBFAF9F8F5349000DF
:100030008485823085833151AA80FE48656C6C6F5F
:100040002066726F6D20696E7465726E616C206DD2
:10005000656D6F72793A2000759852759ABF759BDD
:100060001E90007485823085833190007C858232B9
:10007000858333223098FDC298E599223099FDC2DC
:1000800099F59922C8C534C8E608C8C534C822C83D
:10009000C536C8F608C8C536C822C032C03322C02B
:1000A000E0E8C0E0E4F8936006119A08E870F7D041
:1000B000E0F8D0E022C411B9C4C0E0540F2490D4B9
:1000C0003440D44420119AD0E022C0E0E911B5E8D0
:1000D00011B5D0E022C0E0EB11B5EA11B5E911B5D8
:1000E000E811B5D0E022C0E0C0F030E710F5F074C0
:1000F0002D119AE5F0F4048004C0E0C0F088F0C04F
:10010000F0780075F0648460052430119A08E5F0F9
:1001100075F00A84286005982430119AE5F024309F
:10012000119AD0E0F8D0F0D0E022C0E0E8C0E0E9D9
:10013000C0E030E718742D119AE8F42401F8E9F4CE
:100140003400F98008C0E0E8C0E0E9C0E0EBC0E0BE
:10015000C0F07A0075F0FFC3E89410F8E99427F92D
:1001600005F050F4E82410F8E93427F9E5F06005CB
:100170002430119A0A75F0FFC3E894E8F8E9940373
:10018000F905F050F4E824E8F8E93403F9E5F02A39
:1001900060069A2430119A0A75F0FFC3E89464F857
:1001A000E99400F905F050F4E82464F8E93400F922
:1001B000E5F02A60069A2430119A0AE875F00A845C
:1001C0002A60059A2430119AE5F02430119AD0F073
:1001D000D0E0FAD0E0F9D0E0F8D0E022C0E0C0F002
:1001E000C082C0837173E6FC08E6FD08E6FE08E6FF
:1001F000FF30E72F742D119AECF42401FCEDF43458
:1002000000FDEEF43400FEEFF43400FF8015C0E092
:10021000C0F0C082C0837173E6FC08E6FD08E6FE0C
:1002200008E6FF75F00090025AE493F8A3E493F90E
:10023000A3E493FAA3E493FBA3517E25F060089511
:10024000F0243005F0119AB80ADFEC2430119A71CD
:100250008CD083D082D0F0D0E02200CA9A3B00E15B
:10026000F5058096980040420F00A08601001027F7
:100270000000E8030000640000000A000000C0F075
:10028000C375F0FFEC98FCED99FDEE9AFEEF9BFF35
:1002900005F050F0EC28FCED39FDEE3AFEEF3BFFA7
:1002A000E5F0D0F022C030C03122C0F0C0E0F5F05F
:1002B000ECC0E0EDC0E0EEC0E0EFC0E07166E581CB
:1002C000F82410F581791051A508F6D5F0031980AE
:1002D00002D9F4716611D57166743A119AE824F066
:1002E00029F87A1008EA540370047420119AEAD3AA
:1002F0009950087420119A119A8003E611B5742060
:10030000119ADAE0E824F0F87420119A747C119ABA
:100310007410C399F9FA08E6B420004005B47F00D0
:100320004002742E119ADAEE747C119A740D119AAF
:10033000740A119AE824F0F8EC29FCED3400FDEE83
:100340003400FEEF3400FFE5F0600241C5E5812492
:10035000F0F5817166D0E0FFD0E0FED0E0FDD0E0A6
:10036000FCD0E0D0F022C8CCC8C9CDC9CACECACB17
:10037000CFCB22C0E0E5D05418B41802719FE5D06D
:100380002408F5D0541824F8F8D0E022C0E0E5D0D5
:1003900054187002719FE5D024F8F5D0D0E022C245
:1003A000AFF890007C8582328583339003C9119F1A
:1003B000D0E011B5D0E011B57420119AE811B574F0
:1003C0000D119A740A119A80FE0D0A202121212014
:0803D00070616E6963204000BA
:00000001FF
